{
  "contractName": "Children",
  "abi": [
    {
      "inputs": [
        {
          "internalType": "address",
          "name": "user",
          "type": "address"
        },
        {
          "internalType": "bytes32",
          "name": "roleHash",
          "type": "bytes32"
        }
      ],
      "name": "grantRole",
      "outputs": [
        {
          "internalType": "bool",
          "name": "",
          "type": "bool"
        }
      ],
      "stateMutability": "nonpayable",
      "type": "function"
    },
    {
      "inputs": [
        {
          "internalType": "address",
          "name": "user",
          "type": "address"
        },
        {
          "internalType": "bytes32",
          "name": "roleHash",
          "type": "bytes32"
        }
      ],
      "name": "hasRole",
      "outputs": [
        {
          "internalType": "bool",
          "name": "",
          "type": "bool"
        }
      ],
      "stateMutability": "view",
      "type": "function"
    },
    {
      "inputs": [
        {
          "internalType": "bytes32",
          "name": "roleHash",
          "type": "bytes32"
        },
        {
          "internalType": "bool",
          "name": "isPublic",
          "type": "bool"
        },
        {
          "internalType": "bool",
          "name": "isOwnable",
          "type": "bool"
        }
      ],
      "name": "registerRole",
      "outputs": [
        {
          "internalType": "bool",
          "name": "",
          "type": "bool"
        }
      ],
      "stateMutability": "nonpayable",
      "type": "function"
    },
    {
      "inputs": [
        {
          "internalType": "bytes32",
          "name": "roleHash",
          "type": "bytes32"
        }
      ],
      "name": "renounceRole",
      "outputs": [
        {
          "internalType": "bool",
          "name": "",
          "type": "bool"
        }
      ],
      "stateMutability": "nonpayable",
      "type": "function"
    },
    {
      "inputs": [
        {
          "internalType": "address",
          "name": "user",
          "type": "address"
        },
        {
          "internalType": "bytes32",
          "name": "roleHash",
          "type": "bytes32"
        }
      ],
      "name": "revokeRole",
      "outputs": [
        {
          "internalType": "bool",
          "name": "",
          "type": "bool"
        }
      ],
      "stateMutability": "nonpayable",
      "type": "function"
    },
    {
      "inputs": [
        {
          "internalType": "address",
          "name": "at",
          "type": "address"
        },
        {
          "internalType": "bool",
          "name": "isPublic",
          "type": "bool"
        },
        {
          "internalType": "bool",
          "name": "isOwnable",
          "type": "bool"
        }
      ],
      "name": "registerChild",
      "outputs": [
        {
          "internalType": "bool",
          "name": "",
          "type": "bool"
        }
      ],
      "stateMutability": "nonpayable",
      "type": "function"
    },
    {
      "inputs": [
        {
          "internalType": "address",
          "name": "at",
          "type": "address"
        }
      ],
      "name": "childExists",
      "outputs": [
        {
          "internalType": "bool",
          "name": "",
          "type": "bool"
        }
      ],
      "stateMutability": "view",
      "type": "function"
    }
  ],
  "bytecode": "0x608060405234801561001057600080fd5b5061074e806100206000396000f3fe608060405234801561001057600080fd5b506004361061007d5760003560e01c80638bb9c5bf1161005b5780638bb9c5bf146100e85780639751d464146100fb578063ab2742dc1461010e578063ac4ab3fb1461012157600080fd5b80630a726fe514610082578063208dd1ff146100c2578063381cdd85146100d5575b600080fd5b6100ae6100903660046105fd565b6001600160a01b031660009081526004602052604090205460ff1690565b604051901515815260200160405180910390f35b6100ae6100d0366004610660565b61015c565b6100ae6100e336600461061e565b610225565b6100ae6100f6366004610689565b610341565b6100ae6101093660046106a1565b61037b565b6100ae61011c366004610660565b6104b4565b6100ae61012f366004610660565b60009081526001602081815260408084206001600160a01b03959095168452939091019052205460ff1690565b60008181526001602052604081205433908390630100000090046001600160a01b03168214806101a1575060008181526001602052604090205462010000900460ff16155b6101de5760405162461bcd60e51b81526020600482015260096024820152684e6f2061636365737360b81b60448201526064015b60405180910390fd5b600084815260016020526040902054849060ff1661020e5760405162461bcd60e51b81526004016101d5906106c5565b610218868661056b565b5060019695505050505050565b6001600160a01b03831660009081526004602052604081205460ff161561028e5760405162461bcd60e51b815260206004820152601860248201527f4368696c6420616c72656164792072656769737465726564000000000000000060448201526064016101d5565b6001600160a01b03841660009081526004602052604090208054600161ffff1990911661010086151502171762ff000019166201000084158015919091029190911790915561030d576001600160a01b038416600090815260046020526040902080546301000000600160b81b03191633630100000002179055610337565b6001600160a01b038416600090815260046020526040902080546301000000600160b81b03191690555b5060019392505050565b600081815260016020526040812054829060ff166103715760405162461bcd60e51b81526004016101d5906106c5565b610337338461056b565b60008381526001602052604081205460ff16156103da5760405162461bcd60e51b815260206004820152601e60248201527f526f6c65733a20726f6c6520616c72656164792072656769737465726564000060448201526064016101d5565b60008481526001602081905260408220805460ff1916909117905580549080610402836106f1565b90915550506000848152600160205260409020805462ffff00191662010000841580159190910261ff00191691909117610100861515021790915561046d57600084815260016020526040902080546301000000600160b81b0319163363010000000217905561048d565b600084815260016020526040902080546301000000600160b81b03191690555b610497338561059d565b505060008054815260026020526040902083905560019392505050565b60008181526001602052604081205433908390630100000090046001600160a01b03168214806104f9575060008181526001602052604090205462010000900460ff16155b6105315760405162461bcd60e51b81526020600482015260096024820152684e6f2061636365737360b81b60448201526064016101d5565b600084815260016020526040902054849060ff166105615760405162461bcd60e51b81526004016101d5906106c5565b610218868661059d565b60009081526001602081815260408084206001600160a01b039590951684529382019052919020805460ff1916905590565b60009081526001602081815260408084206001600160a01b039590951684529382019052919020805460ff19168217905590565b80356001600160a01b03811681146105e857600080fd5b919050565b803580151581146105e857600080fd5b60006020828403121561060e578081fd5b610617826105d1565b9392505050565b600080600060608486031215610632578182fd5b61063b846105d1565b9250610649602085016105ed565b9150610657604085016105ed565b90509250925092565b60008060408385031215610672578182fd5b61067b836105d1565b946020939093013593505050565b60006020828403121561069a578081fd5b5035919050565b6000806000606084860312156106b5578283fd5b83359250610649602085016105ed565b602080825260129082015271149bdb1948191bd95cdb89dd08195e1a5cdd60721b604082015260600190565b600060001982141561071157634e487b7160e01b81526011600452602481fd5b506001019056fea2646970667358221220e4e175f9b4c2e8736023ae243c87d48e77c03b272427eb45dd167a9918a410b164736f6c63430008040033",
  "immutableReferences": {},
  "source": "//SPDX-License-Identifier: MIT\n\n// Author: Nithronium\n\n/**\n * I want this children contract to keep track of the \n * child contracts of daosman, here anyone \n * will be able to register a smart contract to be used with the \n * daosman\n *\n * make sure to include the interfaces of the children contracts on the\n * directory\n */\n\npragma solidity ^0.8.0;\n\nimport \"./access/Roles.sol\";\n\ncontract Children is Roles {\n\n    struct ChildrenData {\n        bool isRegistered_;\n        bool isPublic_;\n        bool isOwnable_;\n        address owner_;\n    }\n\n    uint256 private _childrenCounter;\n    mapping(address=>ChildrenData) private _children;\n    mapping(uint256=>address) private _childrenIds;\n\n    function registerChild(address at, bool isPublic, bool isOwnable) public returns (bool) {\n        require(!childExists(at),\"Child already registered\");\n\n        _children[at].isRegistered_ = true;\n        _children[at].isPublic_ = isPublic;\n        _children[at].isOwnable_ = isOwnable;\n        if(isOwnable) { _children[at].owner_ = msg.sender; } else { _children[at].owner_ = address(0); }\n\n        return true;\n    }\n\n    function childExists(address at) public view returns (bool) {\n        return _children[at].isRegistered_;\n    }\n\n    \n}",
  "sourcePath": "/Users/osmankuzucu/Developer/daosman/solidity/contracts/Children.sol",
  "compiler": {
    "name": "solc",
    "version": "0.8.4+commit.c7e474f2.Emscripten.clang"
  },
  "schemaVersion": "3.4.2",
  "updatedAt": "2021-12-19T15:35:09.392Z",
  "devdoc": {
    "kind": "dev",
    "methods": {},
    "version": 1
  },
  "userdoc": {
    "kind": "user",
    "methods": {},
    "version": 1
  }
}