{
  "contractName": "DaosmanChild",
  "abi": [
    {
      "inputs": [],
      "stateMutability": "nonpayable",
      "type": "constructor"
    },
    {
      "inputs": [
        {
          "internalType": "address",
          "name": "user",
          "type": "address"
        },
        {
          "internalType": "bytes32",
          "name": "roleHash",
          "type": "bytes32"
        }
      ],
      "name": "grantRole",
      "outputs": [
        {
          "internalType": "bool",
          "name": "",
          "type": "bool"
        }
      ],
      "stateMutability": "nonpayable",
      "type": "function"
    },
    {
      "inputs": [
        {
          "internalType": "address",
          "name": "user",
          "type": "address"
        },
        {
          "internalType": "bytes32",
          "name": "roleHash",
          "type": "bytes32"
        }
      ],
      "name": "hasRole",
      "outputs": [
        {
          "internalType": "bool",
          "name": "",
          "type": "bool"
        }
      ],
      "stateMutability": "view",
      "type": "function"
    },
    {
      "inputs": [
        {
          "internalType": "bytes32",
          "name": "roleHash",
          "type": "bytes32"
        },
        {
          "internalType": "bool",
          "name": "isPublic",
          "type": "bool"
        },
        {
          "internalType": "bool",
          "name": "isOwnable",
          "type": "bool"
        }
      ],
      "name": "registerRole",
      "outputs": [
        {
          "internalType": "bool",
          "name": "",
          "type": "bool"
        }
      ],
      "stateMutability": "nonpayable",
      "type": "function"
    },
    {
      "inputs": [
        {
          "internalType": "bytes32",
          "name": "roleHash",
          "type": "bytes32"
        }
      ],
      "name": "renounceRole",
      "outputs": [
        {
          "internalType": "bool",
          "name": "",
          "type": "bool"
        }
      ],
      "stateMutability": "nonpayable",
      "type": "function"
    },
    {
      "inputs": [
        {
          "internalType": "address",
          "name": "user",
          "type": "address"
        },
        {
          "internalType": "bytes32",
          "name": "roleHash",
          "type": "bytes32"
        }
      ],
      "name": "revokeRole",
      "outputs": [
        {
          "internalType": "bool",
          "name": "",
          "type": "bool"
        }
      ],
      "stateMutability": "nonpayable",
      "type": "function"
    },
    {
      "inputs": [],
      "name": "getChildIndex",
      "outputs": [
        {
          "internalType": "uint256",
          "name": "",
          "type": "uint256"
        }
      ],
      "stateMutability": "view",
      "type": "function"
    },
    {
      "inputs": [
        {
          "internalType": "uint256",
          "name": "newIndex",
          "type": "uint256"
        }
      ],
      "name": "setChildIndex",
      "outputs": [
        {
          "internalType": "bool",
          "name": "",
          "type": "bool"
        }
      ],
      "stateMutability": "nonpayable",
      "type": "function"
    }
  ],
  "bytecode": "0x608060405234801561001057600080fd5b50600580546001600160a01b0319163317905561061e806100326000396000f3fe608060405234801561001057600080fd5b506004361061007d5760003560e01c80639751d4641161005b5780639751d464146100d0578063ab2742dc146100e3578063ac4ab3fb146100f6578063ea3a5cde1461013157600080fd5b8063208dd1ff1461008257806340d8148b146100aa5780638bb9c5bf146100bd575b600080fd5b61009561009036600461050c565b610142565b60405190151581526020015b60405180910390f35b6100956100b8366004610542565b61020b565b6100956100cb366004610542565b610262565b6100956100de36600461055a565b6102a6565b6100956100f136600461050c565b6103df565b61009561010436600461050c565b60009081526001602081815260408084206001600160a01b03959095168452939091019052205460ff1690565b6004546040519081526020016100a1565b60008181526001602052604081205433908390630100000090046001600160a01b0316821480610187575060008181526001602052604090205462010000900460ff16155b6101c45760405162461bcd60e51b81526020600482015260096024820152684e6f2061636365737360b81b60448201526064015b60405180910390fd5b600084815260016020526040902054849060ff166101f45760405162461bcd60e51b81526004016101bb90610595565b6101fe8686610496565b5060019695505050505050565b6005546000906001600160a01b031633146102545760405162461bcd60e51b81526020600482015260096024820152683737ba1037bbb732b960b91b60448201526064016101bb565b50600481905560015b919050565b600081815260016020526040812054829060ff166102925760405162461bcd60e51b81526004016101bb90610595565b61029c3384610496565b5060019392505050565b60008381526001602052604081205460ff16156103055760405162461bcd60e51b815260206004820152601e60248201527f526f6c65733a20726f6c6520616c72656164792072656769737465726564000060448201526064016101bb565b60008481526001602081905260408220805460ff191690911790558054908061032d836105c1565b90915550506000848152600160205260409020805462ffff00191662010000841580159190910261ff00191691909117610100861515021790915561039857600084815260016020526040902080546301000000600160b81b031916336301000000021790556103b8565b600084815260016020526040902080546301000000600160b81b03191690555b6103c233856104c8565b505060008054815260026020526040902083905560019392505050565b60008181526001602052604081205433908390630100000090046001600160a01b0316821480610424575060008181526001602052604090205462010000900460ff16155b61045c5760405162461bcd60e51b81526020600482015260096024820152684e6f2061636365737360b81b60448201526064016101bb565b600084815260016020526040902054849060ff1661048c5760405162461bcd60e51b81526004016101bb90610595565b6101fe86866104c8565b60009081526001602081815260408084206001600160a01b039590951684529382019052919020805460ff1916905590565b60009081526001602081815260408084206001600160a01b039590951684529382019052919020805460ff19168217905590565b8035801515811461025d57600080fd5b6000806040838503121561051e578182fd5b82356001600160a01b0381168114610534578283fd5b946020939093013593505050565b600060208284031215610553578081fd5b5035919050565b60008060006060848603121561056e578081fd5b8335925061057e602085016104fc565b915061058c604085016104fc565b90509250925092565b602080825260129082015271149bdb1948191bd95cdb89dd08195e1a5cdd60721b604082015260600190565b60006000198214156105e157634e487b7160e01b81526011600452602481fd5b506001019056fea2646970667358221220e1de9cb9ca79272dd569d15bee3e9b288df3ebcddc05f12d7465d1fb2cb6df8b64736f6c63430008040033",
  "immutableReferences": {},
  "source": "//SPDX-License-Identifier: MIT\n\n// Author: Nithronium\n\npragma solidity ^0.8.0;\n\nimport \"../access/Roles.sol\";\n\ncontract DaosmanChild is Roles {\n\n    address private _childrenContract;\n    uint256 private _childIndex;\n    address private _owner;\n\n    //TODO: add a new ownable contract or adjust roles contract\n    constructor () {\n        _owner = msg.sender;\n    }\n\n    modifier onlyOwner() {\n        require(msg.sender == _owner,\"not owner\");\n        _;\n    }\n\n    function getChildIndex() public view returns (uint256) {\n        return _childIndex;\n    }\n\n    function setChildIndex(uint256 newIndex) public onlyOwner returns (bool) {\n        _childIndex = newIndex;\n        return true;\n    }\n    \n}",
  "sourcePath": "/Users/osmankuzucu/Developer/daosman/solidity/contracts/utils/DaosmanChild.sol",
  "compiler": {
    "name": "solc",
    "version": "0.8.4+commit.c7e474f2.Emscripten.clang"
  },
  "schemaVersion": "3.4.2",
  "updatedAt": "2021-12-19T15:35:09.406Z",
  "devdoc": {
    "kind": "dev",
    "methods": {},
    "version": 1
  },
  "userdoc": {
    "kind": "user",
    "methods": {},
    "version": 1
  }
}