{
  "contractName": "DaosmanChild",
  "abi": [
    {
      "inputs": [],
      "name": "getOwner",
      "outputs": [
        {
          "internalType": "address",
          "name": "",
          "type": "address"
        }
      ],
      "stateMutability": "view",
      "type": "function"
    },
    {
      "inputs": [
        {
          "internalType": "address",
          "name": "user",
          "type": "address"
        },
        {
          "internalType": "bytes32",
          "name": "roleHash",
          "type": "bytes32"
        }
      ],
      "name": "grantRole",
      "outputs": [
        {
          "internalType": "bool",
          "name": "",
          "type": "bool"
        }
      ],
      "stateMutability": "nonpayable",
      "type": "function"
    },
    {
      "inputs": [
        {
          "internalType": "address",
          "name": "user",
          "type": "address"
        },
        {
          "internalType": "bytes32",
          "name": "roleHash",
          "type": "bytes32"
        }
      ],
      "name": "hasRole",
      "outputs": [
        {
          "internalType": "bool",
          "name": "",
          "type": "bool"
        }
      ],
      "stateMutability": "view",
      "type": "function"
    },
    {
      "inputs": [
        {
          "internalType": "bytes32",
          "name": "roleHash",
          "type": "bytes32"
        },
        {
          "internalType": "bool",
          "name": "isPublic",
          "type": "bool"
        },
        {
          "internalType": "bool",
          "name": "isOwnable",
          "type": "bool"
        }
      ],
      "name": "registerRole",
      "outputs": [
        {
          "internalType": "bool",
          "name": "",
          "type": "bool"
        }
      ],
      "stateMutability": "nonpayable",
      "type": "function"
    },
    {
      "inputs": [
        {
          "internalType": "bytes32",
          "name": "roleHash",
          "type": "bytes32"
        }
      ],
      "name": "renounceRole",
      "outputs": [
        {
          "internalType": "bool",
          "name": "",
          "type": "bool"
        }
      ],
      "stateMutability": "nonpayable",
      "type": "function"
    },
    {
      "inputs": [
        {
          "internalType": "address",
          "name": "user",
          "type": "address"
        },
        {
          "internalType": "bytes32",
          "name": "roleHash",
          "type": "bytes32"
        }
      ],
      "name": "revokeRole",
      "outputs": [
        {
          "internalType": "bool",
          "name": "",
          "type": "bool"
        }
      ],
      "stateMutability": "nonpayable",
      "type": "function"
    },
    {
      "inputs": [
        {
          "internalType": "address",
          "name": "newOwner",
          "type": "address"
        }
      ],
      "name": "setOwner",
      "outputs": [],
      "stateMutability": "nonpayable",
      "type": "function"
    },
    {
      "inputs": [],
      "name": "getChildIndex",
      "outputs": [
        {
          "internalType": "uint256",
          "name": "",
          "type": "uint256"
        }
      ],
      "stateMutability": "view",
      "type": "function"
    },
    {
      "inputs": [
        {
          "internalType": "uint256",
          "name": "newIndex",
          "type": "uint256"
        }
      ],
      "name": "setChildIndex",
      "outputs": [
        {
          "internalType": "bool",
          "name": "",
          "type": "bool"
        }
      ],
      "stateMutability": "nonpayable",
      "type": "function"
    }
  ],
  "bytecode": "0x608060405234801561001057600080fd5b50600380546001600160a01b031916331790556106f7806100326000396000f3fe608060405234801561001057600080fd5b50600436106100935760003560e01c80638bb9c5bf116100665780638bb9c5bf146101035780639751d46414610116578063ab2742dc14610129578063ac4ab3fb1461013c578063ea3a5cde1461017757600080fd5b806313af403514610098578063208dd1ff146100ad57806340d8148b146100d5578063893d20e8146100e8575b600080fd5b6100ab6100a63660046105d1565b610188565b005b6100c06100bb3660046105f2565b6101f5565b60405190151581526020015b60405180910390f35b6100c06100e336600461061b565b6102b9565b6003546040516001600160a01b0390911681526020016100cc565b6100c061011136600461061b565b610310565b6100c0610124366004610633565b610354565b6100c06101373660046105f2565b61048d565b6100c061014a3660046105f2565b60009081526001602081815260408084206001600160a01b03959095168452939091019052205460ff1690565b6005546040519081526020016100cc565b6003546001600160a01b031633146101d35760405162461bcd60e51b81526020600482015260096024820152682737ba1037bbb732b960b91b60448201526064015b60405180910390fd5b600380546001600160a01b0319166001600160a01b0392909216919091179055565b60008181526001602052604081205433908390630100000090046001600160a01b031682148061023a575060008181526001602052604090205462010000900460ff16155b6102725760405162461bcd60e51b81526020600482015260096024820152684e6f2061636365737360b81b60448201526064016101ca565b600084815260016020526040902054849060ff166102a25760405162461bcd60e51b81526004016101ca9061066e565b6102ac8686610544565b5060019695505050505050565b6003546000906001600160a01b031633146103025760405162461bcd60e51b81526020600482015260096024820152682737ba1037bbb732b960b91b60448201526064016101ca565b50600581905560015b919050565b600081815260016020526040812054829060ff166103405760405162461bcd60e51b81526004016101ca9061066e565b61034a3384610544565b5060019392505050565b60008381526001602052604081205460ff16156103b35760405162461bcd60e51b815260206004820152601e60248201527f526f6c65733a20726f6c6520616c72656164792072656769737465726564000060448201526064016101ca565b60008481526001602081905260408220805460ff19169091179055805490806103db8361069a565b90915550506000848152600160205260409020805462ffff00191662010000841580159190910261ff00191691909117610100861515021790915561044657600084815260016020526040902080546301000000600160b81b03191633630100000002179055610466565b600084815260016020526040902080546301000000600160b81b03191690555b6104703385610576565b505060008054815260026020526040902083905560019392505050565b60008181526001602052604081205433908390630100000090046001600160a01b03168214806104d2575060008181526001602052604090205462010000900460ff16155b61050a5760405162461bcd60e51b81526020600482015260096024820152684e6f2061636365737360b81b60448201526064016101ca565b600084815260016020526040902054849060ff1661053a5760405162461bcd60e51b81526004016101ca9061066e565b6102ac8686610576565b60009081526001602081815260408084206001600160a01b039590951684529382019052919020805460ff1916905590565b60009081526001602081815260408084206001600160a01b039590951684529382019052919020805460ff19168217905590565b80356001600160a01b038116811461030b57600080fd5b8035801515811461030b57600080fd5b6000602082840312156105e2578081fd5b6105eb826105aa565b9392505050565b60008060408385031215610604578081fd5b61060d836105aa565b946020939093013593505050565b60006020828403121561062c578081fd5b5035919050565b600080600060608486031215610647578081fd5b83359250610657602085016105c1565b9150610665604085016105c1565b90509250925092565b602080825260129082015271149bdb1948191bd95cdb89dd08195e1a5cdd60721b604082015260600190565b60006000198214156106ba57634e487b7160e01b81526011600452602481fd5b506001019056fea264697066735822122021c86cb67c11e821f74d63fce2374f1be76d9da40a55264b564a92853eab0a9964736f6c63430008040033",
  "immutableReferences": {},
  "source": "//SPDX-License-Identifier: MIT\n\n// Author: Nithronium\n\npragma solidity ^0.8.0;\n\nimport \"../access/Roles.sol\";\nimport \"../access/Ownable.sol\";\n\ncontract DaosmanChild is Roles, Ownable {\n\n    address private _childrenContract;\n    uint256 private _childIndex;\n\n    function getChildIndex() public view returns (uint256) {\n        return _childIndex;\n    }\n\n    function setChildIndex(uint256 newIndex) public onlyOwner returns (bool) {\n        _childIndex = newIndex;\n        return true;\n    }\n    \n}",
  "sourcePath": "/Users/osmankuzucu/Developer/daosman/solidity/contracts/utils/DaosmanChild.sol",
  "compiler": {
    "name": "solc",
    "version": "0.8.4+commit.c7e474f2.Emscripten.clang"
  },
  "schemaVersion": "3.4.2",
  "updatedAt": "2021-12-19T16:40:47.798Z",
  "devdoc": {
    "kind": "dev",
    "methods": {},
    "version": 1
  },
  "userdoc": {
    "kind": "user",
    "methods": {},
    "version": 1
  }
}