{
  "contractName": "ExampleChild",
  "abi": [
    {
      "inputs": [
        {
          "internalType": "uint256",
          "name": "initialVal",
          "type": "uint256"
        }
      ],
      "stateMutability": "nonpayable",
      "type": "constructor"
    },
    {
      "inputs": [],
      "name": "getChildIndex",
      "outputs": [
        {
          "internalType": "uint256",
          "name": "",
          "type": "uint256"
        }
      ],
      "stateMutability": "view",
      "type": "function"
    },
    {
      "inputs": [
        {
          "internalType": "address",
          "name": "user",
          "type": "address"
        },
        {
          "internalType": "bytes32",
          "name": "roleHash",
          "type": "bytes32"
        }
      ],
      "name": "grantRole",
      "outputs": [
        {
          "internalType": "bool",
          "name": "",
          "type": "bool"
        }
      ],
      "stateMutability": "nonpayable",
      "type": "function"
    },
    {
      "inputs": [
        {
          "internalType": "address",
          "name": "user",
          "type": "address"
        },
        {
          "internalType": "bytes32",
          "name": "roleHash",
          "type": "bytes32"
        }
      ],
      "name": "hasRole",
      "outputs": [
        {
          "internalType": "bool",
          "name": "",
          "type": "bool"
        }
      ],
      "stateMutability": "view",
      "type": "function"
    },
    {
      "inputs": [],
      "name": "myVar",
      "outputs": [
        {
          "internalType": "uint256",
          "name": "",
          "type": "uint256"
        }
      ],
      "stateMutability": "view",
      "type": "function"
    },
    {
      "inputs": [
        {
          "internalType": "bytes32",
          "name": "roleHash",
          "type": "bytes32"
        },
        {
          "internalType": "bool",
          "name": "isPublic",
          "type": "bool"
        },
        {
          "internalType": "bool",
          "name": "isOwnable",
          "type": "bool"
        }
      ],
      "name": "registerRole",
      "outputs": [
        {
          "internalType": "bool",
          "name": "",
          "type": "bool"
        }
      ],
      "stateMutability": "nonpayable",
      "type": "function"
    },
    {
      "inputs": [
        {
          "internalType": "bytes32",
          "name": "roleHash",
          "type": "bytes32"
        }
      ],
      "name": "renounceRole",
      "outputs": [
        {
          "internalType": "bool",
          "name": "",
          "type": "bool"
        }
      ],
      "stateMutability": "nonpayable",
      "type": "function"
    },
    {
      "inputs": [
        {
          "internalType": "address",
          "name": "user",
          "type": "address"
        },
        {
          "internalType": "bytes32",
          "name": "roleHash",
          "type": "bytes32"
        }
      ],
      "name": "revokeRole",
      "outputs": [
        {
          "internalType": "bool",
          "name": "",
          "type": "bool"
        }
      ],
      "stateMutability": "nonpayable",
      "type": "function"
    },
    {
      "inputs": [
        {
          "internalType": "uint256",
          "name": "newIndex",
          "type": "uint256"
        }
      ],
      "name": "setChildIndex",
      "outputs": [
        {
          "internalType": "bool",
          "name": "",
          "type": "bool"
        }
      ],
      "stateMutability": "nonpayable",
      "type": "function"
    },
    {
      "inputs": [],
      "name": "get",
      "outputs": [
        {
          "internalType": "uint256",
          "name": "",
          "type": "uint256"
        }
      ],
      "stateMutability": "view",
      "type": "function"
    },
    {
      "inputs": [
        {
          "internalType": "uint256",
          "name": "newVar",
          "type": "uint256"
        }
      ],
      "name": "set",
      "outputs": [
        {
          "internalType": "bool",
          "name": "",
          "type": "bool"
        }
      ],
      "stateMutability": "nonpayable",
      "type": "function"
    }
  ],
  "bytecode": "0x608060405234801561001057600080fd5b506040516106d73803806106d783398101604081905261002f91610049565b600580546001600160a01b03191633179055600655610061565b60006020828403121561005a578081fd5b5051919050565b610667806100706000396000f3fe608060405234801561001057600080fd5b506004361061009e5760003560e01c80639751d464116100665780639751d46414610119578063ab2742dc1461012c578063ac4ab3fb1461013f578063c6b915401461017a578063ea3a5cde1461018357600080fd5b8063208dd1ff146100a357806340d8148b146100cb57806360fe47b1146100de5780636d4ce63c146100f45780638bb9c5bf14610106575b600080fd5b6100b66100b1366004610555565b61018b565b60405190151581526020015b60405180910390f35b6100b66100d936600461058b565b610254565b6100b66100ec36600461058b565b600655600190565b6006545b6040519081526020016100c2565b6100b661011436600461058b565b6102ab565b6100b66101273660046105a3565b6102ef565b6100b661013a366004610555565b610428565b6100b661014d366004610555565b60009081526001602081815260408084206001600160a01b03959095168452939091019052205460ff1690565b6100f860065481565b6004546100f8565b60008181526001602052604081205433908390630100000090046001600160a01b03168214806101d0575060008181526001602052604090205462010000900460ff16155b61020d5760405162461bcd60e51b81526020600482015260096024820152684e6f2061636365737360b81b60448201526064015b60405180910390fd5b600084815260016020526040902054849060ff1661023d5760405162461bcd60e51b8152600401610204906105de565b61024786866104df565b5060019695505050505050565b6005546000906001600160a01b0316331461029d5760405162461bcd60e51b81526020600482015260096024820152683737ba1037bbb732b960b91b6044820152606401610204565b50600481905560015b919050565b600081815260016020526040812054829060ff166102db5760405162461bcd60e51b8152600401610204906105de565b6102e533846104df565b5060019392505050565b60008381526001602052604081205460ff161561034e5760405162461bcd60e51b815260206004820152601e60248201527f526f6c65733a20726f6c6520616c7265616479207265676973746572656400006044820152606401610204565b60008481526001602081905260408220805460ff19169091179055805490806103768361060a565b90915550506000848152600160205260409020805462ffff00191662010000841580159190910261ff0019169190911761010086151502179091556103e157600084815260016020526040902080546301000000600160b81b03191633630100000002179055610401565b600084815260016020526040902080546301000000600160b81b03191690555b61040b3385610511565b505060008054815260026020526040902083905560019392505050565b60008181526001602052604081205433908390630100000090046001600160a01b031682148061046d575060008181526001602052604090205462010000900460ff16155b6104a55760405162461bcd60e51b81526020600482015260096024820152684e6f2061636365737360b81b6044820152606401610204565b600084815260016020526040902054849060ff166104d55760405162461bcd60e51b8152600401610204906105de565b6102478686610511565b60009081526001602081815260408084206001600160a01b039590951684529382019052919020805460ff1916905590565b60009081526001602081815260408084206001600160a01b039590951684529382019052919020805460ff19168217905590565b803580151581146102a657600080fd5b60008060408385031215610567578182fd5b82356001600160a01b038116811461057d578283fd5b946020939093013593505050565b60006020828403121561059c578081fd5b5035919050565b6000806000606084860312156105b7578081fd5b833592506105c760208501610545565b91506105d560408501610545565b90509250925092565b602080825260129082015271149bdb1948191bd95cdb89dd08195e1a5cdd60721b604082015260600190565b600060001982141561062a57634e487b7160e01b81526011600452602481fd5b506001019056fea2646970667358221220bf9ac2538b62c9a54af14ea0a78dfc623bd58e399ba365d665724329259442f564736f6c63430008040033",
  "immutableReferences": {},
  "source": "//SPDX-License-Identifier: MIT\n\n// Author: Nithronium\n\npragma solidity ^0.8.0;\n\nimport \"../utils/DaosmanChild.sol\";\n\ncontract ExampleChild is DaosmanChild {\n\n    uint public myVar;\n\n    constructor(uint initialVal) DaosmanChild() {\n        myVar = initialVal;\n    }\n\n    function get() public view returns (uint) {\n        return myVar;\n    }\n\n    function set(uint newVar) public returns (bool) {\n        myVar = newVar;\n        return true;\n    }\n    \n}",
  "sourcePath": "/Users/osmankuzucu/Developer/daosman/solidity/contracts/children/ExampleChild.sol",
  "compiler": {
    "name": "solc",
    "version": "0.8.4+commit.c7e474f2.Emscripten.clang"
  },
  "schemaVersion": "3.4.2",
  "updatedAt": "2021-12-19T15:35:09.404Z",
  "devdoc": {
    "kind": "dev",
    "methods": {},
    "version": 1
  },
  "userdoc": {
    "kind": "user",
    "methods": {},
    "version": 1
  }
}