{
  "contractName": "Ownable",
  "abi": [
    {
      "inputs": [],
      "stateMutability": "nonpayable",
      "type": "constructor"
    },
    {
      "inputs": [],
      "name": "getOwner",
      "outputs": [
        {
          "internalType": "address",
          "name": "",
          "type": "address"
        }
      ],
      "stateMutability": "view",
      "type": "function"
    },
    {
      "inputs": [
        {
          "internalType": "address",
          "name": "newOwner",
          "type": "address"
        }
      ],
      "name": "setOwner",
      "outputs": [],
      "stateMutability": "nonpayable",
      "type": "function"
    }
  ],
  "bytecode": "0x608060405234801561001057600080fd5b50600080546001600160a01b03191633179055610134806100326000396000f3fe6080604052348015600f57600080fd5b506004361060325760003560e01c806313af4035146037578063893d20e8146048575b600080fd5b6046604236600460d2565b6067565b005b600054604080516001600160a01b039092168252519081900360200190f35b6000546001600160a01b0316331460b05760405162461bcd60e51b81526020600482015260096024820152682737ba1037bbb732b960b91b604482015260640160405180910390fd5b600080546001600160a01b0319166001600160a01b0392909216919091179055565b60006020828403121560e2578081fd5b81356001600160a01b038116811460f7578182fd5b939250505056fea264697066735822122034df4debbdcda47ad28055477e56e3a5448c670c3bb63cb0147fe27b50bb1e0d64736f6c63430008040033",
  "immutableReferences": {},
  "source": "//SPDX-License-Identifier: MIT\n\n// Author: Nithronium\n\n/**\n * Instead of re-implementing owner stuff all the time\n * i better implement it here once\n * the owner should also be able to change depending on the \n * community votes but I can implement it on v2\n */\n\npragma solidity ^0.8.0;\n\ncontract Ownable {\n\n    address private _owner;\n\n    constructor() {\n        _owner = msg.sender;\n    }\n\n    modifier onlyOwner() {\n        require(_owner == msg.sender,\"Not owner\");\n        _;\n    }\n\n    function getOwner() public view returns (address) {\n        return _owner;\n    }\n\n    function setOwner(address newOwner) public onlyOwner {\n        _owner = newOwner;\n    }\n    \n}",
  "sourcePath": "/Users/osmankuzucu/Developer/daosman/solidity/contracts/access/Ownable.sol",
  "compiler": {
    "name": "solc",
    "version": "0.8.4+commit.c7e474f2.Emscripten.clang"
  },
  "schemaVersion": "3.4.2",
  "updatedAt": "2021-12-19T16:40:47.793Z",
  "devdoc": {
    "kind": "dev",
    "methods": {},
    "version": 1
  },
  "userdoc": {
    "kind": "user",
    "methods": {},
    "version": 1
  }
}